{
  "contractName": "HealthRiskStorage",
  "abi": [
    {
      "inputs": [],
      "stateMutability": "nonpayable",
      "type": "constructor"
    },
    {
      "inputs": [],
      "name": "admin",
      "outputs": [
        {
          "internalType": "address",
          "name": "",
          "type": "address"
        }
      ],
      "stateMutability": "view",
      "type": "function",
      "constant": true
    },
    {
      "inputs": [
        {
          "internalType": "string",
          "name": "_email",
          "type": "string"
        },
        {
          "internalType": "string",
          "name": "_riskLevel",
          "type": "string"
        },
        {
          "internalType": "string",
          "name": "_suggestion",
          "type": "string"
        },
        {
          "internalType": "string",
          "name": "_timestamp",
          "type": "string"
        }
      ],
      "name": "storeHealthData",
      "outputs": [],
      "stateMutability": "nonpayable",
      "type": "function"
    },
    {
      "inputs": [
        {
          "internalType": "string",
          "name": "_email",
          "type": "string"
        }
      ],
      "name": "getHealthData",
      "outputs": [
        {
          "components": [
            {
              "internalType": "string",
              "name": "riskLevel",
              "type": "string"
            },
            {
              "internalType": "string",
              "name": "suggestion",
              "type": "string"
            },
            {
              "internalType": "string",
              "name": "timestamp",
              "type": "string"
            },
            {
              "internalType": "string",
              "name": "email",
              "type": "string"
            }
          ],
          "internalType": "struct HealthRiskStorage.HealthData[]",
          "name": "",
          "type": "tuple[]"
        }
      ],
      "stateMutability": "view",
      "type": "function",
      "constant": true
    }
  ],
  "bytecode": "0x6080604052348015600e575f5ffd5b50335f5f6101000a81548173ffffffffffffffffffffffffffffffffffffffff021916908373ffffffffffffffffffffffffffffffffffffffff160217905550610d1e8061005b5f395ff3fe608060405234801561000f575f5ffd5b506004361061003f575f3560e01c80631742ba6a146100435780639bac186414610073578063f851a4401461008f575b5f5ffd5b61005d60048036038101906100589190610628565b6100ad565b60405161006a91906107ff565b60405180910390f35b61008d6004803603810190610088919061081f565b610366565b005b6100976104b7565b6040516100a49190610932565b60405180910390f35b60606001826040516100bf9190610985565b9081526020016040518091039020805480602002602001604051908101604052809291908181526020015f905b8282101561035b578382905f5260205f2090600402016040518060800160405290815f8201805461011c906109c8565b80601f0160208091040260200160405190810160405280929190818152602001828054610148906109c8565b80156101935780601f1061016a57610100808354040283529160200191610193565b820191905f5260205f20905b81548152906001019060200180831161017657829003601f168201915b505050505081526020016001820180546101ac906109c8565b80601f01602080910402602001604051908101604052809291908181526020018280546101d8906109c8565b80156102235780601f106101fa57610100808354040283529160200191610223565b820191905f5260205f20905b81548152906001019060200180831161020657829003601f168201915b5050505050815260200160028201805461023c906109c8565b80601f0160208091040260200160405190810160405280929190818152602001828054610268906109c8565b80156102b35780601f1061028a576101008083540402835291602001916102b3565b820191905f5260205f20905b81548152906001019060200180831161029657829003601f168201915b505050505081526020016003820180546102cc906109c8565b80601f01602080910402602001604051908101604052809291908181526020018280546102f8906109c8565b80156103435780601f1061031a57610100808354040283529160200191610343565b820191905f5260205f20905b81548152906001019060200180831161032657829003601f168201915b505050505081525050815260200190600101906100ec565b505050509050919050565b5f5f9054906101000a900473ffffffffffffffffffffffffffffffffffffffff1673ffffffffffffffffffffffffffffffffffffffff163373ffffffffffffffffffffffffffffffffffffffff16146103f4576040517f08c379a00000000000000000000000000000000000000000000000000000000081526004016103eb90610a52565b60405180910390fd5b6001846040516104049190610985565b9081526020016040518091039020604051806080016040528085815260200184815260200183815260200186815250908060018154018082558091505060019003905f5260205f2090600402015f909190919091505f820151815f01908161046c9190610c19565b5060208201518160010190816104829190610c19565b5060408201518160020190816104989190610c19565b5060608201518160030190816104ae9190610c19565b50505050505050565b5f5f9054906101000a900473ffffffffffffffffffffffffffffffffffffffff1681565b5f604051905090565b5f5ffd5b5f5ffd5b5f5ffd5b5f5ffd5b5f601f19601f8301169050919050565b7f4e487b71000000000000000000000000000000000000000000000000000000005f52604160045260245ffd5b61053a826104f4565b810181811067ffffffffffffffff8211171561055957610558610504565b5b80604052505050565b5f61056b6104db565b90506105778282610531565b919050565b5f67ffffffffffffffff82111561059657610595610504565b5b61059f826104f4565b9050602081019050919050565b828183375f83830152505050565b5f6105cc6105c78461057c565b610562565b9050828152602081018484840111156105e8576105e76104f0565b5b6105f38482856105ac565b509392505050565b5f82601f83011261060f5761060e6104ec565b5b813561061f8482602086016105ba565b91505092915050565b5f6020828403121561063d5761063c6104e4565b5b5f82013567ffffffffffffffff81111561065a576106596104e8565b5b610666848285016105fb565b91505092915050565b5f81519050919050565b5f82825260208201905092915050565b5f819050602082019050919050565b5f81519050919050565b5f82825260208201905092915050565b8281835e5f83830152505050565b5f6106ca82610698565b6106d481856106a2565b93506106e48185602086016106b2565b6106ed816104f4565b840191505092915050565b5f608083015f8301518482035f86015261071282826106c0565b9150506020830151848203602086015261072c82826106c0565b9150506040830151848203604086015261074682826106c0565b9150506060830151848203606086015261076082826106c0565b9150508091505092915050565b5f61077883836106f8565b905092915050565b5f602082019050919050565b5f6107968261066f565b6107a08185610679565b9350836020820285016107b285610689565b805f5b858110156107ed57848403895281516107ce858261076d565b94506107d983610780565b925060208a019950506001810190506107b5565b50829750879550505050505092915050565b5f6020820190508181035f830152610817818461078c565b905092915050565b5f5f5f5f60808587031215610837576108366104e4565b5b5f85013567ffffffffffffffff811115610854576108536104e8565b5b610860878288016105fb565b945050602085013567ffffffffffffffff811115610881576108806104e8565b5b61088d878288016105fb565b935050604085013567ffffffffffffffff8111156108ae576108ad6104e8565b5b6108ba878288016105fb565b925050606085013567ffffffffffffffff8111156108db576108da6104e8565b5b6108e7878288016105fb565b91505092959194509250565b5f73ffffffffffffffffffffffffffffffffffffffff82169050919050565b5f61091c826108f3565b9050919050565b61092c81610912565b82525050565b5f6020820190506109455f830184610923565b92915050565b5f81905092915050565b5f61095f82610698565b610969818561094b565b93506109798185602086016106b2565b80840191505092915050565b5f6109908284610955565b915081905092915050565b7f4e487b71000000000000000000000000000000000000000000000000000000005f52602260045260245ffd5b5f60028204905060018216806109df57607f821691505b6020821081036109f2576109f161099b565b5b50919050565b5f82825260208201905092915050565b7f4f6e6c792061646d696e2063616e2073746f72652064617461000000000000005f82015250565b5f610a3c6019836109f8565b9150610a4782610a08565b602082019050919050565b5f6020820190508181035f830152610a6981610a30565b9050919050565b5f819050815f5260205f209050919050565b5f6020601f8301049050919050565b5f82821b905092915050565b5f60088302610acc7fffffffffffffffffffffffffffffffffffffffffffffffffffffffffffffffff82610a91565b610ad68683610a91565b95508019841693508086168417925050509392505050565b5f819050919050565b5f819050919050565b5f610b1a610b15610b1084610aee565b610af7565b610aee565b9050919050565b5f819050919050565b610b3383610b00565b610b47610b3f82610b21565b848454610a9d565b825550505050565b5f5f905090565b610b5e610b4f565b610b69818484610b2a565b505050565b5b81811015610b8c57610b815f82610b56565b600181019050610b6f565b5050565b601f821115610bd157610ba281610a70565b610bab84610a82565b81016020851015610bba578190505b610bce610bc685610a82565b830182610b6e565b50505b505050565b5f82821c905092915050565b5f610bf15f1984600802610bd6565b1980831691505092915050565b5f610c098383610be2565b9150826002028217905092915050565b610c2282610698565b67ffffffffffffffff811115610c3b57610c3a610504565b5b610c4582546109c8565b610c50828285610b90565b5f60209050601f831160018114610c81575f8415610c6f578287015190505b610c798582610bfe565b865550610ce0565b601f198416610c8f86610a70565b5f5b82811015610cb657848901518255600182019150602085019450602081019050610c91565b86831015610cd35784890151610ccf601f891682610be2565b8355505b6001600288020188555050505b50505050505056fea26469706673582212205482824d1985df51cda9c0c7794718ba38d0c034e98e24ae6af066e38114c15f64736f6c634300081c0033",
  "immutableReferences": {},
  "source": "// SPDX-License-Identifier: MIT\r\npragma solidity ^0.8.0;\r\n\r\ncontract HealthRiskStorage {\r\n    struct HealthData {\r\n        string riskLevel;\r\n        string suggestion;\r\n        string timestamp;\r\n        string email;\r\n    }\r\n\r\n    address public admin;  \r\n    mapping(string => HealthData[]) private userHealthRecords; \r\n\r\n    modifier onlyAdmin() {\r\n        require(msg.sender == admin, \"Only admin can store data\");\r\n        _;\r\n    }\r\n\r\n    constructor() {\r\n        admin = msg.sender;\r\n    }\r\n\r\n    function storeHealthData(\r\n        string memory _email,\r\n        string memory _riskLevel,\r\n        string memory _suggestion,\r\n        string memory _timestamp\r\n    ) public onlyAdmin {  \r\n        userHealthRecords[_email].push(HealthData(_riskLevel, _suggestion, _timestamp, _email));\r\n    }\r\n\r\n    function getHealthData(string memory _email) public view returns (HealthData[] memory) {\r\n        return userHealthRecords[_email];\r\n    }\r\n}\r\n",
  "sourcePath": "X:\\Projects 2.0\\BeHealthy\\backend\\blockchain1.0\\contracts\\HealthData.sol",
  "compiler": {
    "name": "solc",
    "version": "0.8.28+commit.7893614a.Emscripten.clang"
  },
  "schemaVersion": "3.4.16",
  "updatedAt": "2025-03-22T17:10:52.138Z",
  "networkType": "ethereum",
  "devdoc": {
    "kind": "dev",
    "methods": {},
    "version": 1
  },
  "userdoc": {
    "kind": "user",
    "methods": {},
    "version": 1
  }
}